:100000000C94BA210C94E2210C94E2210C94E2218C
:100010000C94E2210C94E2210C94E2210C94E22154
:100020000C94E2210C94E2210C94F3250C946226AA
:100030000C94E2210C94E2210C94E2210C94E22134
:100040000C94E2210C94E2210C94E2210C94E22124
:100050000C94E2210C94E2210C94E2210C9494285B
:100060000C94E2210C94E2210C94E2210C94E22104
:100070000C94E2210C94E2210C94E2210C94E221F4
:100080000C94E2210C94E2210C94E2210C94E221E4
:100090000C94E2210C94E2210C94E2210C94E221D4
:1000A0000C94E2210C94E2210C94E2210000000067
:1000B000003E5B4F5B3E3E6B4F6B3E1C3E7C3E1CEE
:1000C000183C7E3C181C577D571C1C5E7F5E1C0034
:1000D000183C1800FFE7C3E7FF0018241800FFE7EB
:1000E000DBE7FF30483A060E2629792926407F05AE
:1000F0000507407F05253F5A3CE73C5A7F3E1C1CC4
:1001000008081C1C3E7F14227F22145F5F005F5F83
:1001100006097F017F006689956A6060606060946F
:10012000A2FFA29408047E040810207E2010080874
:100130002A1C08081C2A08081E101010100C1E0C7F
:100140001E0C30383E3830060E3E0E060000000011
:100150000000005F00000007000700147F147F14F8
:10016000242A7F2A1223130864623649562050003D
:1001700008070300001C2241000041221C002A1C29
:100180007F1C2A08083E0808008070300008080814
:100190000808000060600020100804023E51494534
:1001A0003E00427F400072494949462141494D3352
:1001B0001814127F1027454545393C4A49493141B9
:1001C000211109073649494936464949291E000087
:1001D00014000000403400000008142241141414DC
:1001E0001414004122140802015909063E415D59C8
:1001F0004E7C1211127C7F494949363E41414122D1
:100200007F4141413E7F494949417F090909013EFA
:10021000414151737F0808087F00417F4100204021
:10022000413F017F081422417F404040407F021C33
:10023000027F7F0408107F3E4141413E7F0909094A
:10024000063E4151215E7F09192946264949493216
:1002500003017F01033F4040403F1F2040201F3FDC
:100260004038403F63140814630304780403615961
:10027000494D43007F4141410204081020004141A3
:10028000417F04020102044040404040000307084F
:100290000020545478407F2844443838444444284B
:1002A000384444287F385454541800087E090218F2
:1002B000A4A49C787F0804047800447D400020407A
:1002C000403D007F1028440000417F40007C0478BE
:1002D00004787C080404783844444438FC18242406
:1002E0001818242418FC7C08040408485454542486
:1002F00004043F44243C4040207C1C2040201C3C03
:100300004030403C44281028444C9090907C4464F9
:10031000544C44000836410000007700000041368C
:10032000080002010204023C2623263C1EA1A16112
:10033000123A4040207A3854545559215555794144
:100340002154547841215554784020545579400C1B
:100350001E527212395555555939545454593955FC
:100360005454580000457C410002457D420001453F
:100370007C40F0292429F0F0282528F07C545545AC
:10038000002054547C547C0A097F4932494949323F
:100390003248484832324A4848303A4141217A3A54
:1003A00042402078009DA0A07D39444444393D401E
:1003B00040403D3C24FF2424487E4943662B2FFCCB
:1003C0002F2BFF0929F620C0887E09032054547979
:1003D000410000447D413048484A32384040227A4A
:1003E000007A0A0A727D0D19317D2629292F2826C7
:1003F0002929292630484D402038080808080808CF
:100400000808382F10C8ACBA2F102834FA00007B27
:10041000000008142A142222142A1408950022002D
:1004200095AA005500AAAA55AA55AA000000FF00E7
:10043000101010FF00141414FF001010FF00FF1024
:1004400010F010F0141414FC001414F700FF000056
:10045000FF00FF1414F404FC141417101F10101FD5
:10046000101F1414141F00101010F0000000001FC3
:10047000101010101F10101010F010000000FF10CE
:100480001010101010101010FF10000000FF1400CA
:1004900000FF00FF00001F10170000FC04F41414FC
:1004A0001710171414F404F40000FF00F7141414C8
:1004B00014141414F700F7141414171410101F1048
:1004C0001F141414F4141010F010F000001F101F6B
:1004D0000000001F14000000FC140000F010F010D9
:1004E00010FF10FF141414FF141010101F00000050
:1004F00000F010FFFFFFFFFFF0F0F0F0F0FFFFFF54
:100500000000000000FFFF0F0F0F0F0F38444438AA
:10051000447C2A2A3E147E02020606027E027E02E5
:1005200063554941633844443C04407E201E200604
:10053000027E020299A5E7A5991C2A492A1C4C7241
:1005400001724C304A4D4D303048784830BC625AC8
:10055000463D3E494949007E0101017E2A2A2A2A58
:100560002A44445F444440514A444040444A514034
:100570000000FF0103E080FF000008086B6B0836F5
:1005800012362436060F090F060000181800000066
:100590001010003040FF0101001F01011E00191D55
:1005A0001712003C3C3C3C0000000000F0F89C8E20
:1005B0008783878E9CF8F00000FEFF03030303038C
:1005C000070EFCF80000FEFF0303030303070EFC05
:1005D000F80000FFFF00000000000000FFFF000027
:1005E000FEFF8383838383C7EE7C380000F8FC0E14
:1005F00007030303070EFCF800003F7FE0C0808084
:10060000C0E07F3FFFFF01010101010101FFFF0089
:1006100000FFFF0C0C0C0C1C3E77E3C100007FFFB9
:10062000C0C0C0C0C0E0703F1F00001F3F70E0C0EE
:10063000C0C0E0703F1F00007FFFC1C1C1C1C1E366
:10064000773E1C00001F3F70E0C0C0C0E0703F1F3D
:10065000000000000001FFFF01000000D5F08D1434
:10066000A1C881CFD9F1AF2000616261636B616283
:100670006166746162617365616261746561626221
:1006800065796162626F746162686F7261626964E8
:100690006561626C657261626F646561626F7574D9
:1006A00061626F76656162757365616279737361AA
:1006B00063686564616368657361636964736163DA
:1006C0006F726E6163726573616372696461637492
:1006D00065646163746F7261637574656164616799
:1006E00065616461707461646465646164646572A9
:1006F0006164657074616469657561646D69746174
:10070000646F626561646F707461646F7265616467
:100710006F726E6164756C74616567697361656F32
:100720006E736166666978616669726561666F6F2E
:10073000746166746572616761696E616761706535
:1007400061676174656167656E746167696C656135
:1007500067696E6761676C6F7761676F6E796167F4
:100760007265656168656164616964656461696435
:10077000657361696C656461696D65646169726501
:10078000646169736C65616C61726D616C62756DD9
:10079000616C646572616C657274616C69617361CE
:1007A0006C696269616C69656E616C696B65616CCD
:1007B000697665616C6C6179616C6C6579616C6C92
:1007C0006F74616C6C6F77616C6C6F79616C6F6565
:1007D00073616C6F6674616C6F6E65616C6F6E6770
:1007E000616C6F6F66616C6F7564616C706861617C
:1007F0006C746172616C746572616C746F73616D3D
:10080000617373616D617A65616D626572616D625C
:100810006C65616D656E64616D69676F616D69734B
:1008200073616D697479616D6F6E67616D6F7572FB
:10083000616D706C65616D706C79616D757365610A
:100840006E67656C616E676572616E676C65616E1F
:10085000677279616E677374616E696D65616E6BE5
:100860006C65616E6E6578616E6E6F79616E6E75C6
:100870006C616E746573616E746963616E76696CC8
:10088000617061636561706172746170696E6761E6
:100890007070616C6170706C656170706C796170A2
:1008A000726F6E6170746C7961726561736172658B
:1008B0006E616172677565617269736561726D659C
:1008C0006461726F6D6161726F736561727261797B
:1008D0006172726F776172736F6E617368656E615A
:1008E00073686573617369646561736B6564617373
:1008F0006B6577617370656E617373617961737332
:10090000657361737365746173746572617374691F
:100910007261746C617361746F6C6C61746F6D7310
:1009200061746F6E6561747461726174746963611E
:100930007564696F61756469746175676572617505
:10094000676874617567757261756E7473617572CD
:1009500061736175746F73617661696C61766572DC
:1009600073617665727461766F696461766F7773AF
:1009700061776169746177616B65617761726461E8
:1009800077617265617766756C61776F6B656178A9
:10099000696F6D61786C6573617A757265626162A9
:1009A000656C62616265736261636B736261636FE0
:1009B0006E62616467656261646C796261676779C0
:1009C00062616974736261697A6562616B656462B0
:1009D000616B657262616C657362616C6C7362619C
:1009E0006C6D7962616E616C62616E647362616E7E
:1009F000647962616E677362616E6A6F62616E6B69
:100A00007362616E6E73626172627362617264734B
:100A1000626172656462617267656261726B736262
:100A200061726E736261726F6E626173616C62613A
:100A30007365646261736572626173657362617329
:100A40006963626173696C626173696E6261736923
:100A500073626173736F62617374656261746368FA
:100A6000626174656462617468656261746873620E
:100A700061746F6E6261796F7562656163686265EA
:100A800061647362656164796265616B73626561FB
:100A90006D736265616E73626561726462656172D5
:100AA00073626561737462656175786265656368B8
:100AB00062656574736265666974626567616E62BA
:100AC000656761746265676574626567696E6265B2
:100AD000676F74626567756E6265696E6762656C83
:100AE000696562656C6C6562656C6C7362656C6C83
:100AF0007962656C6F7762656C747362656E63684A
:100B000062656E6473626572677362657272796240
:100B100065727468626572796C626573657462652A
:100B2000736F6D626576656C6269626C656269643B
:100B30006564626964657362696768746269676F36
:100B40007462696C676562696C6C7362696C6C79FC
:100B500062696E6473626970656462697263686217
:100B60006972647362697274686269736F6E6269D4
:100B70007463686269746573626C61636B626C61F3
:100B80006465626C616D65626C616E64626C616EFD
:100B90006B626C617265626C617374626C617A65C0
:100BA000626C65616B626C656174626C65656462E0
:100BB0006C656E64626C656E74626C657373626C96
:100BC000657374626C696E64626C696E6B626C6989
:100BD0007373626C6F636B626C6F6373626C6F6E66
:100BE00064626C6F6F64626C6F6F6D626C6F747354
:100BF000626C6F776E626C6F7773626C7565726230
:100C00006C756573626C756666626C756E74626C29
:100C1000757274626C757368626F617264626F6121
:100C20007273626F617374626F617473626F646513
:100C300064626F646573626F676779626F6775730B
:100C4000626F696C73626F6C6573626F6C747362F0
:100C50006F6D6273626F6E6473626F6E6564626FF4
:100C60006E6573626F6E6E79626F6E7573626F6FB1
:100C70006279626F6F6B73626F6F6D73626F6F6EAD
:100C800073626F6F7273626F6F7374626F6F746889
:100C9000626F6F7473626F6F7479626F6F7A65627F
:100CA0006F726178626F726564626F726573626F92
:100CB000726E65626F736F6D626F756768626F7574
:100CC0006E64626F757473626F776564626F776567
:100CD0006C626F776572626F776C73626F78656450
:100CE000626F786572626F78657362726163656264
:100CF000726167736272616964627261696E627265
:100D0000616B656272616E6462726173736272615B
:100D100074736272617665627261766F6272617716
:100D20006C627261776E6272656164627265616B3A
:100D3000627265656462726961726272696265623B
:100D40007269636B62726964656272696566627218
:100D500069657262726967736272696D73627269E2
:100D60006E656272696E676272696E6B6272696EDD
:100D700079627269736B62726F616462726F696CBF
:100D800062726F6B6562726F6F6462726F6F6B62BB
:100D9000726F6F6D62726F746862726F776E62727B
:100DA0006F7773627275696E6272756E7462727556
:100DB000736862727574656275636B73627564677C
:100DC0006562756767796275676C656275696C6481
:100DD0006275696C7462756C627362756C6765626A
:100DE000756C6B7362756C6B7962756C6C73627524
:100DF0006C6C7962756D707362756E636862756E26
:100E00006B7362756F79736275726C796275726EED
:100E1000736275726E74627572726F6275727273DC
:100E200062757273746275736879627573747362D4
:100E30007574746562757474736275786F6D6275BC
:100E4000796572636162616C636162627963616238
:100E5000696E6361626C65636163616F636163683E
:100E60006563616465746361647265636167656429
:100E70006361676573636169726E63616B65646307
:100E8000616B657363616C6C7363616C6D736361DB
:100E90006C797863616D656C63616D656F63616DBD
:100EA000707363616E616C63616E647963616E65BA
:100EB0007363616E6E7963616E6F6563616E6F6E91
:100EC00063616E746F636170657263617065736393
:100ED00061706F6E63617264736361726564636194
:100EE000726573636172676F6361726F6C63617265
:100EF000727963617274736361727665636173653D
:100F00006463617365736361736B73636173746549
:100F1000636173747363617463686361746572633E
:100F2000617573656361766564636176657363613A
:100F300076696C636561736563656461726365643A
:100F4000656463656C6C7363656E74736368616616
:100F5000656368616666636861696E63686169722A
:100F60006368616C6B6368616D706368616E746304
:100F700068616F736368617073636861726D6368E1
:100F800061727463686172796368617365636861D3
:100F9000736D6368617473636865617063686561CC
:100FA00074636865636B636865656B6368656572C8
:100FB0006368656673636865737363686573746398
:100FC0006869636B636869646563686965666368BB
:100FD000696C646368696C6C6368696D6563686992
:100FE0006E616368696E6B6368696E73636869706C
:100FF00073636869727063686F697263686F6B6549
:1010000063686F707363686F726463686F7365633E
:101010006875636B6368756D706368756D7363681D
:10102000756E6B636875726C636875726E636875F4
:1010300074656369646572636967617263696E632D
:101040006863697263616369746564636974657315
:1010500063697665746369766963636976696C63ED
:101060006C61636B636C61696D636C616D70636C03
:10107000616D73636C616E67636C616E6B636C61F1
:101080006E73636C617073636C617368636C6173BE
:1010900070636C617373636C617773636C65616EAD
:1010A000636C656172636C656673636C65667463BB
:1010B0006C65726B636C657773636C69636B636C8F
:1010C000696666636C696D62636C696D65636C69A2
:1010D0006E67636C696E6B636C697073636C6F6170
:1010E0006B636C6F636B636C6F6473636C6F67735C
:1010F000636C6F7365636C6F7468636C6F75646346
:101100006C6F7574636C6F7665636C6F776E636C10
:10111000756273636C75636B636C756573636C7513
:101120006D70636C756E67636F616368636F616C2C
:1011300073636F617374636F617473636F62726101
:10114000636F636B73636F636F61636F6465736316
:101150006F696C73636F696E73636F6C6473636FD5
:101160006C6963636F6C6F6E636F6C7473636F6DC8
:101170006273636F6D6572636F6D6573636F6D65C9
:1011800074636F6D6963636F6D6D61636F6E6368C8
:10119000636F6E6573636F6E6963636F6F656463BE
:1011A0006F6F6B73636F6F6C73636F707261636F7C
:1011B000707365636F72616C636F726473636F7277
:1011C0006573636F726B73636F726E73636F72704C
:1011D00073636F737473636F746573636F75636840
:1011E000636F756768636F756C64636F756E746346
:1011F0006F757065636F757073636F757274636F0D
:10120000766572636F766573636F766574636F7608
:101210006579636F776564636F776572636F796C07
:1012200079636F7A656E6372616273637261636B17
:10123000637261667463726167736372616D706318
:1012400072616E656372616E6B6372617065637209
:1012500061736863726173736372617465637261F1
:101260007665637261776C6372617A656372617AC5
:1012700079637265616B637265616D637265646FDA
:101280006372656564637265656B637265657063DF
:10129000726570656372657074637265737363728F
:1012A000657374637265777363726962736372697D
:1012B000636B6372696564637269657263726965A1
:1012C000736372696D656372696D7063726973705F
:1012D00063726F616B63726F636B63726F6E656372
:1012E000726F6E7963726F6F6B63726F707363721C
:1012F0006F737363726F757063726F776463726F0D
:10130000776E63726F777363727564656372756508
:101310006C6372756D6263727573686372757374F2
:101320006372797074637562657363756269636310
:1013300075626974637566667363756C74736375DF
:1013400072647363757265646375726573637572D5
:101350006C736375726C796375727279637572738D
:1013600065637572737463757276656379636C65B2
:1013700063796E696364616464796461696C7964DA
:1013800061697279646169737964616C65736461C0
:101390006C6C7964616D657364616D707364616EAA
:1013A000636564616E6479646172656464617265C9
:1013B0007364617274736461746564646174657389
:1013C000646174756D64617562736461756E746473
:1013D00061776E7364617A65646465616C7364657A
:1013E000616C746465616E73646561727364656178
:1013F000746864656261726465626974646562746C
:1014000073646562757464656361796465636B7345
:101410006465636F79646563727964656564736438
:1014200065656D7364656570736465666572646532
:1014300069676E646569747964656C617964656C0B
:101440006C7364656C746164656C766564656D6FFE
:101450006E64656D757264656E736564656E7473D4
:101460006465706F746465707468646572627964D1
:1014700065736B73646574657264657563656465D3
:1014800076696C64696172796469636564646963CF
:1014900065736469637461646965747364696769B9
:1014A0007464696B657364696D657364696D6C7987
:1014B00064696E656464696E657264696E6573649F
:1014C000696E677964697267656469727479646961
:1014D0007363736469736B73646974636864697458
:1014E000746F6469747479646976616E6469766531
:1014F000646469766572646976657364697A7A7919
:10150000646F636B73646F646765646F6572736443
:101510006F676D61646F696E67646F6C6564646F3B
:101520006C6C73646F6D6564646F6D6573646F6E0E
:101530006F72646F6F6D73646F6F7273646F7365D6
:1015400064646F736573646F746564646F746573EA
:10155000646F756274646F756768646F76657364D1
:101560006F776479646F776E73646F776E79646F89
:10157000777279646F7A6564646F7A656E6472619C
:1015800066746472616773647261696E6472616BC0
:10159000656472616D616472616D736472616E6BBA
:1015A0006472617065647261776C647261776E6495
:1015B0007261777364726179736472656164647275
:1015C00065616D6472656773647265737364726973
:1015D0006564647269657264726965736472696670
:1015E000746472696C6C6472696C796472696E6B34
:1015F0006472697073647269766564726F6C6C642E
:10160000726F6E6564726F6F7064726F7073647204
:101610006F737364726F766564726F776E647275E0
:1016200067736472756D736472756E6B6472796CD6
:1016300079647563616C64756361746475636879FA
:101640006475636B7364756374736475656C7364DC
:101650007565747364756B657364756C6C796475AA
:101660006D6D7964756D707364756D707964756E88
:10167000636564756E657364756E6E6F64757065B1
:101680006464757065736475736B7964757374796C
:1016900064776172666477656C6C6477656C74649A
:1016A00079696E6764796B65736561676572656199
:1016B000676C656561726C736561726C7965617286
:1016C0006E73656172746865617365646561736585
:1016D0006C6561736573656174656E65617465726F
:1016E0006561766573656262656465626F6E796572
:1016F000646765646564676573656469637465647C
:101700006966796565726965656767656465696756
:101710006874656A656374656C617465656C626F35
:1017200077656C646572656C656374656C65677913
:10173000656C66696E656C697465656C6F7065650E
:101740006C756465656C766573656D61696C656DF6
:10175000697473656D707479656E616374656E64C8
:101760006564656E646F77656E656D79656E6A6FC9
:1017700079656E6E7569656E726F6C656E73756591
:10178000656E746572656E747279656E766F796573
:101790007069637365706F6368657175616C65719D
:1017A000756970657261736565726563746572727F
:1017B00065646572726F726573736179657468656B
:1017C00072657468696365766164656576656E7473
:1017D00065766572796576696C7365766F6B65653C
:1017E000786163746578616C74657863656C65783D
:1017F0006572746578696C65657869737465786914
:101800007473657870656C6578746F6C65787472E4
:10181000616578756C746579696E676579726965FB
:101820006661626C65666163656466616365736663
:10183000616374736661646564666164657366613F
:10184000696C736661696E746661697273666169F9
:101850007279666169746866616B697266616C6CE5
:101860007366616C736566616D656466616E6379EC
:1018700066616E67736661726365666172656466F0
:10188000617265736661726D7366617374736661AC
:1018900074616C66617465646661746573666174B5
:1018A00074796661756C746661756E616661756E7A
:1018B000736661776E736665617273666561737472
:1018C000666561747366656564736665656C736689
:1018D0006569676E6665696E7466656C6C7366656E
:1018E0006C6F6E66656E6365666572616C66657267
:1018F0006E73666572727966657463686665746531
:101900006466657469646665747573666575647329
:101910006665766572666577657266696368656631
:10192000696566736669656C646669656E64666937
:101930006572796669666573666966746866696604
:101940007479666967687466696C636866696C65F2
:101950006466696C657366696C657466696C6C73E2
:1019600066696C6C7966696C6D7366696C6D7966B5
:10197000696C746866696E616C66696E63686669D5
:101980006E647366696E656466696E657266696EBB
:10199000657366696E697366696E6E7966696F7282
:1019A00064666972656466697265736669726D738F
:1019B000666972737466697368796669737473664D
:1019C00069746C7966697665736669786564666959
:1019D0007865726669786573666A6F7264666C6151
:1019E0006773666C61696C666C616972666C616B69
:1019F00065666C616B79666C616D65666C616E6B5A
:101A0000666C617073666C617265666C6173686642
:101A10006C61736B666C617473666C617773666C12
:101A2000656173666C65636B666C656573666C6532
:101A30006574666C657368666C69636B666C696512
:101A400072666C696573666C696E67666C696E74E4
:101A5000666C697274666C697473666C6F617466C7
:101A60006C6F636B666C6F6573666C6F6F64666CCE
:101A70006F6F72666C6F7261666C6F7373666C6F9A
:101A80007572666C6F7574666C6F776E666C6F7767
:101A900073666C756573666C756666666C7569648D
:101AA000666C756B65666C756D65666C756E676684
:101AB0006C757368666C757465666C796572666F53
:101AC000616D73666F616D79666F63616C666F637C
:101AD0007573666F676779666F696C73666F697334
:101AE00074666F6C6473666F6C696F666F6C6B7332
:101AF000666F6C6C79666F6F6473666F6F6C73661C
:101B00006F726179666F726365666F726473666F18
:101B1000726765666F72676F666F726B73666F72FE
:101B20006D73666F727465666F727468666F7274D7
:101B300073666F727479666F72756D666F756E64B9
:101B4000666F756E74666F757273666F776C7366A9
:101B50006F786573666F796572667261696C6672BB
:101B6000616D656672616E636672616E6B667261ED
:101B70007564667265616B667265656466726565DB
:101B80007266726565736672657368667265747392
:101B9000667269617266726965646672696C6C66A8
:101BA0007269736B66726F636B66726F677366726E
:101BB0006F6E6466726F6E7466726F737466726F46
:101BC000746866726F776E66726F7A656672756931
:101BD0007466756467656675656C7366756775654B
:101BE00066756C6C7966756D656466756D65736632
:101BF000756E647366756E676966756E6E79667507
:101C00007272796675727A656675736564667573E6
:101C10006573667573737966757A7A796761626CD4
:101C2000656761696C796761696E7367616C65731B
:101C300067616C6C7367616D657367616D696E6711
:101C4000616D6D6167616D757467616E6773676102
:101C500070656467617065736761736573676173ED
:101C600070736761746573676175647967617567BF
:101C7000656761756E746761757A656761757A7994
:101C8000676176656C6761776B79676179657267A3
:101C900061796C7967617A656467617A6572676199
:101CA0007A65736765617273676565736567656E8D
:101CB000696567656E696967656E726567656E748B
:101CC0007367656E75736765726D7367686F73743C
:101CD0006769616E7467696265736769646479676F
:101CE0006966747367696C647367696C6C73676940
:101CF0006D6D65676970737967697264736769721E
:101D00006C736769727468676976656E6769766512
:101D100073676C616465676C616E64676C61726542
:101D2000676C617373676C617A65676C65616D6719
:101D30006C65616E676C656E73676C696465676C12
:101D4000696E74676C6F6174676C6F6265676C6FE6
:101D50006F6D676C6F7279676C6F7373676C6F769A
:101D600065676C6F7773676C756564676E617368C0
:101D7000676E617473676E617773676E6F6D6567A9
:101D80006F616473676F616C73676F617473676FA2
:101D9000646C79676F696E67676F6C6C79676F6E7B
:101DA0006773676F6E6E61676F6F6473676F6F6481
:101DB00079676F6F7365676F726564676F72676568
:101DC000676F727365676F747461676F7567656756
:101DD0006F757264676F757479676F776E7367720A
:101DE000616273677261636567726164656772617E
:101DF0006674677261696E6772616D736772616E36
:101E0000646772616E746772617065677261706831
:101E1000677261737067726173736772617465670B
:101E20007261766567726176796772617A656772E9
:101E30006561746772656564677265656E67726512
:101E40006574677265797367726965666772696CD4
:101E50006C6772696D656772696D796772696E64C6
:101E60006772696E736772697065677269707367AC
:101E70007269737467726F616E67726F696E677291
:101E80006F6F6D67726F706567726F737367726F74
:101E9000757067726F766567726F776C67726F7750
:101EA0006E67726F77736772756273677275656C50
:101EB00067727566666772756E746775616E6F6757
:101EC000756172646775657373677565737467753B
:101ED0006964656775696C646775696C6567756960
:101EE0006C74677569736567756C636867756C6634
:101EF0007367756C6C7367756C6C7967756D6D79EC
:101F0000677573746F6775737473677573747967C6
:101F10007970737968616269746861636B73686111
:101F2000696C736861697273686169727968616C00
:101F3000656468616C6C7368616C747368616C76FD
:101F40006568616E647368616E647968616E6773F9
:101F500068617070796861726479686172656D68D2
:101F6000617265736861726D7368617270736861C4
:101F7000727079686172727968617273686861728F
:101F8000747368617374656861737479686174638C
:101F900068686174656468617465726861756C73A2
:101FA000686176656E6861766F636861776B736888
:101FB000617A656C68656164736865616479686598
:101FC000616C73686561707368656172646865618E
:101FD000727368656172746865617468686561745C
:101FE000736865617665686561767968656467655B
:101FF00068656564736865656C7368656972736844
:10200000656C697868656C6C6F68656C6D73686524
:102010006C707368656E636568657262736865721B
:1020200064736865726F6E6865726F7368657765F3
:1020300064686964657368696C6C7368696C6C79F1
:1020400068696C747368696E647368696E676568E3
:10205000696E7473686972656468697265736869CA
:102060007463686869766573686F617264686F61CC
:102070007279686F626279686F697374686F6C6493
:1020800073686F6C6573686F6C6C79686F6D65737E
:10209000686F6E6579686F6F6473686F6F66736879
:1020A0006F6F6B73686F6F7073686F6F7473686F47
:1020B000706564686F706573686F726465686F726D
:1020C0006E73686F726E79686F727365686F737420
:1020D00073686F74656C686F746C79686F756E6423
:1020E000686F757273686F757365686F76656C6815
:1020F0006F766572686F776C7368756C6B736875F3
:102100006C6C7368756D616E68756D696468756D0A
:10211000707368756D757368756E636868756E74D5
:10212000736875726C73687572727968757274739E
:102130006875736B736875736B7968757373796899
:10214000796472616879656E6168796D6E736963CF
:10215000696C796963696E67696465616C696465F6
:1021600061736964696F6D6964696F7469646C65D2
:102170006469646C657269646F6C736964796C6CB2
:1021800069676C6F6F696D616765696D62756569B7
:102190006D70656C696D706C79696E616E65696E84
:1021A000637572696E646578696E657074696E6571
:1021B0007274696E666572696E676F74696E6C655C
:1021C00074696E6E6572696E746572696E7572653A
:1021D000697261746569726B656469726F6E736947
:1021E000726F6E7969736C657369736C657469730A
:1021F0007375656974656D7369766F72796A616309
:102200006B736A616465646A61696C736A61756E37
:10221000746A65616E736A656572736A656C6C7900
:102220006A65726B736A65726B796A657374736AD7
:10223000657474796A6577656C6A696666796A6FD0
:10224000696E736A6F696E746A6F6B65646A6F6BCF
:1022500065726A6F6B65736A6F6C6C796A6F7573A0
:10226000746A6F7965646A756467656A75696365C0
:102270006A756963796A756D70736A756E6B736A76
:10228000756E74616A75726F726B61726D616B6588
:10229000656C736B656570736B657463686B65798A
:1022A00065646B68616B696B69636B736B696C6C9C
:1022B000736B696E64616B696E64736B696E67736F
:1022C0006B696F736B6B697465736B6E61636B6B5A
:1022D0006E6176656B6E6561646B6E65656C6B6E69
:1022E0006565736B6E656C6C6B6E656C746B6E693B
:1022F00066656B6E6974736B6E6F62736B6E6F6322
:102300006B6B6E6F6C6C6B6E6F74736B6E6F776EE6
:102310006B6E6F77736C6162656C6C616365646C26
:10232000616365736C61636B736C6164656E6C6132
:10233000646C656C616765726C616972736C61690C
:1023400074796C616B65736C616D62736C616D65E2
:10235000646C616D65736C616D70736C616E6365E7
:102360006C616E64736C616E65736C616E6B796CBD
:102370006170656C6C617073656C617263686C61CF
:102380007267656C6172676F6C61726B736C61729E
:1023900076616C6173736F6C617374736C61746379
:1023A000686C617465726C617468656C6174687383
:1023B0006C617567686C61776E736C617965726C5E
:1023C000656164736C656166796C65616B736C657E
:1023D000616B796C65616E736C656170736C65615E
:1023E00070746C6561726E6C656173656C65617348
:1023F000686C656173746C656176656C656467654E
:102400006C656563686C65656B736C6567616C6C46
:10241000656D6D656C656D6F6E6C656E64736C6516
:102420007065726C657665656C6576656C6C6576F5
:1024300065726C696172736C6962656C6C69636BFF
:10244000736C696567656C69656E736C69667473D6
:102450006C696768746C696B65646C696B656E6CDC
:10246000696B65726C696B65736C696C61636C69CF
:102470006D626F6C696D62736C696D65736C696DAB
:1024800069746C696E65646C696E656E6C696E65A5
:10249000726C696E65736C696E676F6C696E6B7375
:1024A0006C696F6E736C697374736C697468656C56
:1024B000697665646C697665726C697665736C695A
:1024C0007669646C6C616D616C6F6164736C6F6173
:1024D0006D796C6F616E736C6F6174686C6F626242
:1024E000796C6F6265736C6F63616C6C6F636B7337
:1024F0006C6F6375736C6F6467656C6F6674796C11
:102500006F6765736C6F6769636C6F67696E6C6F1B
:10251000696E736C6F6E67736C6F6F6B736C6F6FDC
:102520006D736C6F6F6E736C6F6F70736C6F6F73B6
:10253000656C6F7264736C6F7365726C6F736573C7
:102540006C6F7475736C6F7573656C6F7573796C84
:102550006F7665646C6F7665726C6F7665736C6FA1
:102560007765646C6F7765726C6F776C796C6F7977
:10257000616C6C756369646C75636B796C756C6C9C
:10258000736C756D70736C756D70796C756E61724E
:102590006C756E63686C756E67656C756E67736C71
:1025A000757263686C757265646C757265736C7551
:1025B0007269646C75726B736C757374736C75731C
:1025C00074796C757465736C79696E676C796D700C
:1025D000686C796E63686C797269636D6163657349
:1025E0006D6164616D6D61646C796D616769636D66
:1025F000616964736D61696C736D61696E736D613E
:10260000697A656D616A6F726D616B65726D616B20
:1026100065736D616C65736D616D6D616D616E6526
:10262000736D616E67616D616E67656D616E676F19
:102630006D616E67796D616E69616D616E6C796DEA
:10264000616E6E616D616E6F726D616E73656D61ED
:10265000706C656D617263686D617265736D6172D6
:102660006B736D617272796D617273686D61727492
:10267000736D61736B736D61736F6E6D6173747382
:102680006D617463686D617465646D617465736DAB
:10269000617576656D6178696D6D617962656D6191
:1026A000796F726D617A65736D65616C736D65616B
:1026B0006C796D65616E736D65616E746D65617465
:1026C000736D6564616C6D656469616D6565747376
:1026D0006D656C6F6E6D656C74736D656D65736D36
:1026E000656E64736D656E75736D657263796D6526
:1026F0007265736D657267656D657269746D65721B
:1027000072796D657361736D6574616C6D65746507
:10271000646D657465726D657765646D6964737405
:102720006D69656E736D696768746D696C63686DFA
:10273000696C65736D696C6B796D696C6C736D69CF
:102740006D65736D696D69636D696E63656D696EE5
:1027500064736D696E65646D696E65726D696E65D1
:10276000736D696E6F726D696E74736D696E75737A
:102770006D697274686D697365726D697374736D78
:10278000697465736D697865646D697865736D6F7B
:10279000616E736D6F6174736D6F636B736D6F6476
:1027A000656C6D6F64656D6D6F6465736D6F697376
:1027B000746D6F6C61726D6F6C65736D6F6D6D6153
:1027C0006D6F6E65796D6F6E6B736D6F6E74686D26
:1027D0006F6F64736D6F6F64796D6F6F6E736D6F14
:1027E0006F72736D6F6F73656D6F7065646D6F720F
:1027F000616C6D6F7265736D6F7373796D6F7465F6
:10280000736D6F7468736D6F7469666D6F746F72DA
:102810006D6F74746F6D6F756E646D6F756E746DC2
:102820006F75726E6D6F7573656D6F7574686D6FB2
:102830007665646D6F7665726D6F7665736D6F76B4
:1028400069656D6F7765646D6F7765726D756375BA
:10285000736D756464796D756C65736D756C746991
:102860006D756D6D796D756D70736D756E63686D79
:102870007572616C6D75726B796D757365646D756C
:102880007365736D757369636D75736B796D75734E
:1028900074796D757465646D757465736D79727234
:1028A000686D797468736E61626F626E61696C7372
:1028B0006E616976656E616B65646E616D65646E8F
:1028C000616D65736E6173616C6E617374796E6155
:1028D00074616C6E617474796E6176616C6E617630
:1028E000656C6E617665736E656172736E65636B40
:1028F000736E656564736E656564796E6569676836
:102900006E657276656E657374736E657665726EEC
:10291000657765726E65776C796E696365726E69ED
:102920006368656E696563656E696768746E696E14
:102930006E796E6F626C656E6F626C796E6F6973C3
:10294000656E6F6973796E6F6D61646E6F6E6365CE
:102950006E6F6F6B736E6F6F73656E6F7274686E90
:102960006F7365646E6F7365736E6F7463686E6F9B
:102970007465646E6F7465736E6F756E736E6F766B
:10298000656C6E756467656E757273656E796D7072
:10299000686F616B656E6F616B756D6F6173657389
:1029A0006F617369736F6174656E6F617468736F63
:1029B000626573656F626579736F636375726F6368
:1029C00065616E6F636872656F646465726F64647D
:1029D0006C796F6469756D6F6666616C6F6666654C
:1029E000726F6674656E6F696C65646F6C64656E3A
:1029F0006F6C6465726F6D656E736F6D6974736F04
:102A00006E696F6E6F6E7365746F6F7A65646F6FEA
:102A10007A65736F70616C736F70656E736F7065DC
:102A200072616F70696E656F7069756D6F707469D2
:102A3000636F726269746F726465726F7267616EE0
:102A40006F736965726F746865726F747465726FA5
:102A5000756768746F756E63656F7574646F6F7595
:102A60007465726F76616C736F766172796F76657B
:102A70006E736F766572746F77696E676F776E6568
:102A8000646F776E65726F786964656F7A6F6E6573
:102A900070616365737061636B7370616464797096
:102AA00061647265706165616E706167616E7061AD
:102AB0006765737061696C737061696E7370616969
:102AC0006E74706169727370616C656470616C655D
:102AD0007270616C657370616C6D7370616C6D792F
:102AE00070616C737970616E656C70616E65737026
:102AF000616E677370616E696370616E7379706126
:102B00006E7473706170616C70617061737061700C
:102B1000657270617265647061726B617061726B15
:102B200073706172727970617273657061727473BF
:102B300070617274797061736861706173746570CB
:102B400061737479706174636870617465737061C6
:102B5000746873706174696F7061757365706176A4
:102B6000656470617765647061776E7370617965B3
:102B700064706179657270656163657065616368D1
:102B80007065616B737065616C73706561726C7098
:102B90006561727370656173657065636B73706591
:102BA00064616C7065657073706565727370656C77
:102BB000747370656E616C70656E636570656E6967
:102BC0007370656E6E7970656F6E73706572636831
:102BD000706572696C7065736B797065736F737013
:102BE00065737473706574616C7065747479706802
:102BF000617365706869616C70686F6E6570686F2D
:102C0000746F7069616E6F7069636B73706965630F
:102C100065706965727370696574797069676D79DB
:102C200070696B657370696C656470696C657370ED
:102C3000696C6C7370696C6F7470696E63687069CD
:102C40006E656470696E657370696E6B7370696EC2
:102C5000746F70696E747370696F75737069706585
:102C6000647069706572706970657370697175659B
:102C7000706974636870697468797069766F74706C
:102C80006C616365706C616964706C61696E706CB5
:102C9000616974706C616E65706C616E6B706C6193
:102CA0006E73706C616E74706C617465706C617958
:102CB00073706C617A61706C656164706C6561736E
:102CC000706C696564706C696573706C6F74737037
:102CD0006C75636B706C756773706C756D62706C1E
:102CE000756D65706C756D73706C757368706F64FD
:102CF0006961706F656D73706F657379706F6574FE
:102D000073706F696E74706F697365706F6B6564F3
:102D1000706F6B6572706F6B6573706F6C617270E2
:102D20006F6C6573706F6C6B61706F6C6C73706FD0
:102D30006E6473706F6F6C73706F706573706F70AB
:102D40007061706F707079706F726368706F7265A8
:102D500064706F726573706F727473706F73656493
:102D6000706F736572706F736573706F7373657076
:102D70006F737473706F756368706F756E64706F66
:102D8000757273706F7765727072616E6B7072615D
:102D9000746570726179737072657373707265793E
:102DA000737072696365707269636B707269646570
:102DB000707269656470726965737072696D65704F
:102DC00072696E747072696F72707269736D70720D
:102DD0006976797072697A6570726F626570726F08
:102DE0006E6570726F6F6670726F707370726F73F2
:102DF0006570726F737970726F756470726F7665DB
:102E000070726F776C70726F777370726F787970A1
:102E1000727564657072756E657073616C6D7073D8
:102E200068617770756467797075666673707566CA
:102E3000667970756C6C7370756C707970756C7385
:102E40006570756D707370756E6368707570696CA0
:102E50007075707079707572656570757265727075
:102E60007572676570757273657075737379707557
:102E7000747479717561636B717561666671756182
:102E8000696C7175616B657175616C6D717561727D
:102E90007471756173697175617973717565656E4A
:102EA00071756565727175656C6C71756572797136
:102EB000756573747175657565717569636B717529
:102EC0006965747175696C6C7175696C747175691B
:102ED00070737175697265717569746571756974FE
:102EE0007371756F746171756F746571756F7468E6
:102EF000726162626972616269647261636564725F
:102F00006163657272616365737261636B73726131
:102F1000646969726164696F726166747372616712
:102F20006564726167657372616964737261696C0B
:102F3000737261696E737261696E797261697365CA
:102F400072616A616872616B656472616B657372EC
:102F5000616C6C7972616E636872616E67657261D3
:102F60006E6B7372617069647261726572726172A4
:102F7000657372617465647261746573726174699A
:102F80006F7261766564726176656E726176657383
:102F90007261796F6E72617A656472617A6F727252
:102FA000656163687265616374726561647372659B
:102FB0006164797265616C6D7265616C7372656173
:102FC0006D7372656170737265617273726562654B
:102FD0006C72656275737265627574726563757221
:102FE000726565647372656564797265656673722E
:102FF00065656B737265656C737265657665726520
:103000006665727265666974726567616C7265691E
:10301000676E7265696E7372656C617872656C61FA
:103020007972656C696372656D697472656E6473DB
:1030300072656E657772656E7473726570617972B0
:103040006570656C7265706C7972657365747265B4
:1030500073696E7265737473726576656C7265768A
:103060007565726865756D7268796D657269636B97
:1030700073726964657272696465737269646765A5
:103080007269666C65726966747372696768747276
:103090006967696472696C656472696C6C73726982
:1030A0006D657372696E677372696E736572696F4D
:1030B0007473726970656E72697065727269736536
:1030C0006E726973657272697365737269736B731B
:1030D0007269736B797269746573726976616C7207
:1030E0006976656E72697665727269766574726FFB
:1030F000616473726F616D73726F617273726F610D
:103100007374726F626564726F626573726F626905
:103110006E726F636B73726F636B79726F677565D5
:10312000726F6C6573726F6C6C73726F6D616E72BF
:103130006F6F6673726F6F6B73726F6F6D73726F99
:103140006F6D79726F6F7374726F6F7473726F706B
:103150006564726F706573726F736573726F736994
:103160006E726F756765726F756768726F756E6482
:10317000726F757365726F757465726F7574737243
:103180006F766564726F766572726F776479726F4D
:10319000776564726F79616C727564657272756659
:1031A00066737275696E7372756C656472756C6541
:1031B0007272756C657372756E657372756E677316
:1031C0007275706565727572616C72757365737313
:1031D00061626C6573616272657361636B73736165
:1031E000646C79736166657273616761737361673B
:1031F000657373616869627361696C737361696E29
:1032000074736169746873616C616473616C657314
:1032100073616C6C7973616C6F6E73616C736173E5
:10322000616C747373616C747973616C76657361CE
:103230006C766F73616E647373616E647973616EC3
:1032400065727361746564736174696E73617479B6
:1032500072736175636573617563797361766564B3
:10326000736176657373617765647363616C6473AE
:1032700063616C657363616C707363616C797363B4
:10328000616D707363616E737363616E7473636198
:103290007265736361726673636172737363656E83
:1032A000657363656E747363696F6E73636F66666F
:1032B00073636F6C6473636F6F7073636F70657348
:1032C000636F726573636F726E73636F757273632E
:1032D0006F757473636F776C73637261707363720D
:1032E0006577736372697073637275627363756C0B
:1032F0006C7365616C737365616D737365616D7912
:1033000073656174737365637473736564616E73FD
:103310006564676573656564737365656479736512
:10332000656B737365656D737365657273736569DA
:103330007A6573656C6C7373656D656E73656E64C9
:103340007373656E736573657266737365726765B3
:10335000736572756D7365727665736576656E7388
:103360006576657273657765647365776572736595
:10337000786573736861636B7368616465736861B2
:10338000647973686166747368616B657368616B97
:10339000797368616C657368616C6C7368616C7477
:1033A0007368616D657368616D737368616E6B736B
:1033B000686170657368617265736861726B736868
:1033C0006172707368617665736861776C73686544
:1033D0006166736865617273686564737368656557
:1033E0006E7368656570736865657273686565742A
:1033F000736865696B7368656C667368656C6C731C
:103400006869656473686966747368696E65736812
:10341000696E737368696E797368697073736869CC
:103420007265736869726B736869727473686F61CF
:103430006C73686F636B73686F657373686F6E65C9
:1034400073686F6F6B73686F6F6E73686F6F747391
:10345000686F707373686F726573686F726E73688C
:103460006F727473686F747373686F757473686F59
:10347000766573686F776E73686F777373686F774D
:103480007973687265647368726577736872756260
:1034900073687275677368756E7373687574737328
:1034A00068796C79736962796C736964656473694E
:1034B0006465737369656765736965766573696764
:1034C000687373696768747369676D617369676E40
:1034D0007373696C6B7373696C6B7973696C6C7300
:1034E00073696C6C7973696E636573696E65777304
:1034F000696E676573696E677373696E6B73736901
:1035000072656E73697265737369746573736978D4
:1035100065737369787468736978747973697A65A7
:103520006473697A6573736B617465736B65696ED7
:10353000736B696573736B696666736B696C6C73C7
:103540006B696D73736B696E73736B697073736B97
:10355000697274736B756C6B736B756C6C736B7574
:103560006E6B736C616273736C61636B736C6167B8
:1035700073736C61696E736C616B65736C616E679C
:10358000736C616E74736C617073736C6173687368
:103590006C617465736C617473736C617665736C64
:1035A000617973736C656473736C65656B736C655B
:1035B0006570736C656574736C657074736C696346
:1035C00065736C69636B736C696465736C696C7942
:1035D000736C696D65736C696D79736C696E677313
:1035E0006C696E6B736C697073736C697473736CF4
:1035F0006F6F70736C6F7065736C6F7073736C6FDB
:103600007468736C756773736C756D70736C756DBE
:1036100073736C756E67736C756E6B736C757368B2
:10362000736C796C79736D61636B736D616C6C73C2
:103630006D617274736D617368736D656172736DC2
:10364000656C6C736D656C74736D696C65736D69B5
:10365000726B736D697465736D697468736D6F6394
:103660006B736D6F6B65736D6F6B79736D6F746575
:10367000736E61636B736E616773736E61696C7394
:103680006E616B65736E616B79736E617073736E6F
:10369000617265736E61726C736E65616B736E657A
:1036A0006572736E696666736E697065736E6F625C
:1036B00073736E6F7265736E6F7274736E6F757401
:1036C000736E6F7773736E6F7779736E75666673EB
:1036D0006F617079736F617273736F626572736F0C
:1036E000636B73736F666173736F676779736F6909
:1036F0006C73736F6C6172736F6C6573736F6C69ED
:1037000064736F6C6F73736F6C7665736F6E6773D2
:10371000736F6E6E79736F6F7468736F6F74797394
:103720006F726573736F727279736F727473736F84
:10373000756768736F756C73736F756E64736F758F
:103740007073736F757365736F757468736F776576
:1037500064736F77657273706163657370616465BC
:103760007370616B657370616E6B7370616E737390
:1037700070617265737061726B7370617273737074
:1037800061736D737061776E737065616B73706573
:103790006172737065636B73706565647370656C7B
:1037A0006C7370656C747370656E647370656E7441
:1037B000737065726D737069636573706963797333
:1037C0007069656473706965737370696B65737034
:1037D000696C6C7370696C747370696E6573706911
:1037E0006E737370696E79737069726573706974E2
:1037F00065737069747373706C697473706F696CDE
:1038000073706F6B6573706F6F6B73706F6F6C73CA
:10381000706F6F6E73706F6F7273706F72657370AD
:103820006F727473706F747373706F75747370727A
:103830006179737072656573707269677370756EA4
:103840006B737075726E737075727373707572745A
:103850007371756164737175617473717561777378
:1038600074616273737461636B737461666673749D
:10387000616765737461677373746169647374619C
:10388000696E73746169727374616B657374616C72
:10389000657374616C6B7374616C6C7374616D705F
:1038A0007374616E647374616E6B7374617265734B
:1038B0007461726B73746172737374617274737414
:1038C000617465737461766573746179737374651B
:1038D0006164737465616B737465616C7374656145
:1038E0006D7374656564737465656C737465657018
:1038F00073746565727374656D73737465707373D7
:103900007465726E7374657773737469636B7374C3
:103910006966667374696C657374696C6C737469D9
:103920006E677374696E6B7374696E7473746972A5
:103930007373746F636B73746F696373746F6C65A7
:1039400073746F6E6573746F6E7973746F6F647375
:10395000746F6F6C73746F6F7073746F7073737454
:103960006F726573746F726B73746F726D73746F53
:10397000727973746F757473746F76657374726132
:10398000707374726177737472617973747265772E
:1039900073747269707374727574737475636B7316
:1039A000747564737374756479737475666673740F
:1039B000756D707374756E677374756E74737479E6
:1039C0006C6573756176657375636B737375676129
:1039D000727375696E6773756974657375697473ED
:1039E00073756C6B7373756C6B7973756C6C7973C1
:1039F000756E6E79737570657273757265727375B5
:103A00007267657375726C79737761696E737761CC
:103A10006D707377616E73737761726473776172BF
:103A20006D737761797373776561727377656174AC
:103A3000737765657073776565747377656C6C73A0
:103A40007765707473776966747377696C6C737774
:103A5000696D737377696E657377696E677377697C
:103A6000726C737769736873776F6F6E73776F6F4C
:103A70007073776F726473776F726573776F726E3E
:103A80007377756E6773796E6F647379727570741E
:103A9000616262797461626C657461626F6F746196
:103AA0006369747461636B737461696C7374616965
:103AB0006E7474616B656E74616B657374616C6553
:103AC0007374616C6B7374616C6C7974616C6F6E20
:103AD00074616D656474616D657274616E6B73742D
:103AE0006170657274617065737461726479746118
:103AF00072657374617272797461727473746173D4
:103B00006B73746173746574617374797461756EC9
:103B1000747461776E7974617865647461786573C3
:103B200074656163687465616D73746561727374E3
:103B3000656173657465656D737465656E737465D1
:103B400065746874656C6C7374656D706974656DAB
:103B5000706F74656D707374656E647374656E6593
:103B60007474656E6F7274656E736574656E746877
:103B700074656E747374657065657465706964747A
:103B800065726D737465727365746573747374654F
:103B900073747974657874737468616E6B74686536
:103BA000667474686569727468656D657468657259
:103BB000657468657365746869636B746869656664
:103BC00074686967687468696E657468696E67743B
:103BD00068696E6B746869726474686F6E67746824
:103BE0006F726E74686F73657468726565746872FD
:103BF00065777468726F627468726F657468726FEB
:103C0000777468756D627468756D707468796D65C8
:103C1000746961726174696269617469636B7374F8
:103C20006964616C746964657374696572737469DD
:103C3000676572746967687474696C646574696CCB
:103C4000656474696C657374696C6C7374696C74A5
:103C50007374696D656474696D657374696D6964A5
:103C600074696E676574696E74737469707379745E
:103C7000697265647469726573746974686574697E
:103C8000746C65746F616473746F617374746F6462
:103C90006179746F646479746F696C73746F6B6548
:103CA0006E746F6C6C73746F6D6273746F6D65732B
:103CB000746F6E6564746F6E6573746F6E67737422
:103CC0006F6E6963746F6F6C73746F6F7468746F09
:103CD00070617A746F706963746F717565746F72F7
:103CE0006368746F72736F746F727473746F7461DE
:103CF0006C746F74656D746F756368746F756768E5
:103D0000746F757273746F776564746F77656C74B4
:103D10006F776572746F776E73746F786963746FA1
:103D20007965647472616365747261636B747261E6
:103D300063747472616465747261696C74726169D0
:103D40006E74726169747472616D707472616D7396
:103D50007472617073747261736874726179737470
:103D6000726561647472656174747265656474729D
:103D70006565737472656E64747265737374726969
:103D80006164747269616C7472696265747269638A
:103D900065747269636B7472696564747269657362
:103DA0007472696C6C747269706574726970737422
:103DB0007269746574726F6C6C74726F6F70747208
:103DC0006F746874726F747374726F7574747275D3
:103DD0006365747275636B74727565727472756CF9
:103DE000797472756D707472756E6B7472757373AD
:103DF0007472757374747275746874727973747490
:103E000075626573747566747374756C69707475B6
:103E10006C6C6574756E656474756E657374756EBF
:103E200069637475726E737475736B737475746F84
:103E300072747761696E7477616E677477656564B3
:103E4000747769636574776967737477696E65748D
:103E500077696E73747769726C7477697374747947
:103E6000696E67747970656474797065737564647C
:103E70006572756C636572756C747261756E636C76
:103E800065756E637574756E646572756E6469646C
:103E9000756E647565756E666974756E696F6E753D
:103EA0006E697465756E697473756E697479756E13
:103EB000736179756E746965756E74696C7570700F
:103EC00065727570736574757262616E757267651F
:103ED0006475726765737572696E65757361676520
:103EE000757365727375736865727573696E6775DE
:103EF0007375616C7573757270757375727975749D
:103F0000746572766167756576616C657376616CF0
:103F1000657476616C696476616C756576616C76E2
:103F20006576616E657376617069647661736573D9
:103F30007661756C747661756E747665696C73768E
:103F400065696E7376656C647476656E616C7665B2
:103F50006E6F6D76656E747376656E756576657277
:103F6000627376657267657665727365766572767B
:103F70006576657374737665786564766578657360
:103F80007669616C7376696361727669636573766D
:103F90006964656F7669657773766967696C766958
:103FA0006C657276696C6C6176696E657376696F43
:103FB0006C6176697065727669727573766973691A
:103FC000747669736F727669737461766974616C03
:103FD0007669766964766978656E76697A6F7276E5
:103FE0006F63616C766F646B61766F677565766F12
:103FF000696365766F696C65766F6C7473766F6DE7
:104000006974766F746564766F746572766F7465C3
:1040100073766F756368766F776564766F77656CB6
:104020007679696E677761646564776166657277D2
:1040300061667473776167656477616765727761DC
:104040006765737761676F6E7761696673776169BA
:104050006C7377616973747761697473776169767A
:104060006577616B656477616B656E77616B6573AE
:1040700077616C6B7377616C6C7377616C747A7752
:10408000616E647377616E656477616E6573776185
:104090006E7473776172647377617265737761723E
:1040A0006D737761726E7377617274737761737019
:1040B000737761737465776174636877617465722F
:1040C0007761766564776176657277617665737717
:1040D00061786564776178656E7761786573776517
:1040E000617273776561727977656176657765640A
:1040F0006765776565647377656564797765656B12
:1041000073776565707377656967687765697264E9
:1041100077656C636877656C6C7377656E636877D9
:104120006861636B7768616C6577686172667768F0
:10413000656174776865656C7768656C70776865CC
:104140007265776869636877686966667768696CBD
:10415000657768696D737768696E6577686970738C
:10416000776869726C7768697272776869736B7760
:1041700068697374776869746577686F6C65776868
:104180006F6F7077686F726577686F736577696353
:104190006B73776964656E77696465727769646F5C
:1041A0007777696474687769656C64776967687440
:1041B00077696C647377696C657377696C6C737716
:1041C000696E636577696E636877696E6473776932
:1041D0006E647977696E657377696E677377696EF8
:1041E0006B737769706564776970657377697265F9
:1041F00064776972657377697365727769737073D1
:1042000077697463687769747479776976657377A9
:104210006F6D616E776F6D656E776F6F6473776FBB
:104220006F6479776F6F6564776F6F6572776F72A0
:104230006473776F726479776F726B73776F726C78
:1042400064776F726D73776F727279776F7273655F
:10425000776F727374776F727468776F756C647749
:104260006F756E64777261636B777261707377726A
:104270006170747772617468777265616B7772656B
:10428000636B77726573747772696E67777269733F
:10429000747772697465777269747377726F6E6719
:1042A00077726F746577726F746879616368747917
:1042B000617264737961726E737961776E73796517
:1042C00061726E7965617273796561737479656C19
:1042D0006C7379656C70737969656C64796F6B6503
:1042E00064796F6B6573796F6C6B73796F756E67DB
:1042F000796F757273796F7574687A656272617AB5
:104300006F6E657300080B000202020000090400D2
:104310000001020200000524001001052401010132
:10432000042402060524060001070581031000404D
:1043300009040100020A0000000705020240000013
:10434000070583024000000403090412010002EF84
:1043500002014041233680000101020301417264E1
:1043600075696E6F204C4C430041726475626F79C1
:104370000000112911241FBECFEFDAE0DEBFCDBF50
:1043800011E0A0E0B1E0E8E1F1E602C005900D9295
:10439000A83AB107D9F726E0A8EAB1E001C01D921A
:1043A000AD35B207E1F711E2CAEBD1E204C02197C3
:1043B000FE010E945530C93BD107C9F70E942E2942
:1043C0000C948A300C940000E9E0F2E0A0E0B8E040
:1043D00000800EBC8111012C1197A0FDFDCF019230
:1043E000B9F70DB40895FC0180910802882311F1FA
:1043F0003FB7F89482E08093E9002091F200822F89
:1044000090E01816190614F481E090E0882339F042
:10441000289844E6409307024091F100408322230C
:1044200039F02091F200211103C02BE62093E8001F
:104430003FBF08958FEF9FEF08952FB7F89483E063
:104440008093E9009091E800892F807295FF04C065
:104450009091F20080E4891B2FBF08958091FF01A5
:1044600081110DC082E08093FB0184E08093FC0108
:104470001092FE011092FD0181E08093FF018BEF0D
:1044800091E00895CF93DF931F92CDB7DEB7698394
:10449000DC01ED91FC910280F381E02D41E050E0E0
:1044A000BE016F5F7F4F09950F90DF91CF91089507
:1044B00083E08093E9008091F200882319F08AE379
:1044C0008093E80008950E941D2290E00895CF9304
:1044D000DF931F92CDB7DEB7FC018485958597FDEC
:1044E00008C02FEF3FEF358724870F90DF91CF91E2
:1044F0000895CE0101960E94F321019719F4898154
:1045000090E0F3CF8FEF9FEFF0CF0F931F93CF93F8
:10451000DF931F92CDB7DEB78C01FC0184859585B2
:1045200097FF0BC0CE0101960E94F321019771F411
:10453000898190E0F80195878487F80184859585C5
:104540000F90DF91CF911F910F9108958FEF9FEF03
:10455000F1CFFC018485958597FD0BC09FB7F8943A
:1045600082E08093E9008091F2009FBF90E0019685
:1045700008959FB7F89482E08093E9008091F2005B
:104580009FBF90E008954091F5015091F601209170
:10459000F3013091F40142175307B4F49091E8000D
:1045A0009570E1F39091E80092FD19C08093F100BD
:1045B0008091F5019091F60101968F739927892BCF
:1045C00019F48EEF8093E8008091F5019091F60147
:1045D00001969093F6018093F50181E0089580E0C3
:1045E0000895DF92EF92FF920F931F93CF93DF9383
:1045F000D82E8A01EB017B01E40EF51ECE15DF05F6
:1046000059F0D7FE12C0FE0184910E94C322219668
:104610008111F4CF0FEF1FEFC801DF91CF911F91F0
:104620000F91FF90EF90DF9008958881EECF0F9368
:104630001F93CF93DF931F92CDB7DEB782E08983BC
:1046400042E450E065E073E480E80E94F1220E94B9
:104650002E22DC0112960D911C910115110589F095
:10466000D801ED91FC910280F381E02DBE016F5FD6
:104670007F4FC801099597FD04C0F8010085118599
:10468000ECCF89810F90DF91CF911F910F91089509
:10469000615030F02091F100FC0120830196F8CFA9
:1046A000289884E6809307020895FC010E94EC2379
:1046B000319728F068517C4F8F4F9F4FF9CFAB0156
:1046C000FC010E94EC23641775078E079F07C8F34F
:1046D00008958F929F92AF92BF92CF92DF92EF9206
:1046E000FF920F931F93CF93DF936C017B018A019D
:1046F00080910E01882309F45AC080910802882312
:1047000009F455C08091FA0180FF05C08091E00056
:1047100082608093E000E801B12C8AEFA82E93E03C
:10472000892E2AE3922E209711F4BB20C9F10E9412
:104730001D22811108C0AA94AA20C9F181E090E04D
:104740000E945523F0CF8C171D0611F00CF08C2F12
:104750009FB7F8948092E9002091E80025FD02C0FF
:104760009FBFE1CF282F30E0C21BD30BF701815050
:1047700020F041914093F100FACFE20EF31EBB20EE
:1047800021F09092E800B12CEBCF8091E80085FDFC
:10479000E7CF9092E800BB24B394209709F3F3CFBE
:1047A0005D9884E68093F901101611063CF081E0D3
:1047B00090E0F6019383828310E000E0C801DF916E
:1047C000CF911F910F91FF90EF90DF90CF90BF900E
:1047D000AF909F908F900895AFEEB1E02FB7F8940F
:1047E0007D918D919C9166B52FBFA89B05C06F3FB1
:1047F00018F47F5F8F4F9F4F22E0660F771F881F4F
:10480000991F2A95D1F70895AF92BF92CF92DF9268
:10481000EF92FF920F931F93CF93DF936C017B0175
:104820008B01040F151FEB015E01AE18BF08C01706
:10483000D10759F06991D601ED91FC910190F08179
:10484000E02DC6010995892B79F7C501DF91CF913C
:104850001F910F91FF90EF90DF90CF90BF90AF909E
:10486000089590E00C9455238FB18095807F669BCE
:1048700088601C9B8460089590E0E9E0F2E091116B
:104880009FEF8FEF91939193919391938150D0F7F4
:104890001092AD011092AC011092AF011092AE01D6
:1048A00008959091B001982329F49091B101982333
:1048B00081E009F480E0089580E00C94E4218038E0
:1048C0009105B8F460347105A0F490E121E061FD38
:1048D00024E060FD220F62FD2295687F969FD00143
:1048E0001124A80FA75FBD4F0C90022A40FF02269B
:1048F0000C9208952F923F924F925F926F927F9207
:104900008F929F92AF92BF92CF92DF92EF92FF92DF
:104910000F931F93CF93DF93EC018B017A01690111
:10492000C61AD70AD7FE03C0D194C194D108470153
:104930008C1A9D0A97FE03C09194819491088C145F
:104940009D0454F49E2D8F2D7901292F382F9C2FF3
:104950008D2FE801092F182FEC16FD0654F4902F27
:10496000812F8901292F382F9C2F8D2FE701E92EC8
:10497000F82E17012C1A3D0A2901401A510A57FE38
:1049800003C0519441945108310137FE03C08FEFA9
:10499000681A780A759467948FEF021713070CF45E
:1049A00081E0A82E880FBB08EC16FD06A4F041E0BC
:1049B000BE01C8018C149D0414F0B801CE010E9400
:1049C0005F246418750877FE04C00A0D1B1D620C75
:1049D000731C2196E9CFDF91CF911F910F91FF902A
:1049E000EF90DF90CF90BF90AF909F908F907F908F
:1049F0006F905F904F903F902F9008952F923F922D
:104A00004F925F926F927F928F929F92AF92BF92DE
:104A1000CF92DF92EF92FF920F931F93CF93DF938A
:104A200000D000D000D01F92CDB7DEB76D30D9F0E6
:104A3000309001014090AC015090AD01832D90E089
:104A40009F838E836A3051F51092AF011092AE01B0
:104A500023E0880F991F2A95E1F7480E591E5092BE
:104A6000AD014092AC0181E090E027960FB6F8943A
:104A7000DEBF0FBECDBFDF91CF911F910F91FF9091
:104A8000EF90DF90CF90BF90AF909F908F907F90EE
:104A90006F905F904F903F902F900895A090AE013F
:104AA000B090AF0195E0699FB0011124FB01E4557E
:104AB000FF4F3F016501212CF5E02F1629F1C301BD
:104AC0000196F301F491F9833C01420128E02A8325
:104AD000898181708D8310E000E00315D0F4F80126
:104AE000EC0DFD1DFC83EB83F12CE12CE31470F441
:104AF000B4016E0D7F1D4D818B819C810E945F24CE
:104B0000FFEFEF1AFF0AF2CF1982DFCF0F5F1F4FBF
:104B1000E4CF2981269529838A8181508A83EE8179
:104B2000FF818E0E9F1E8111D3CF2394CE0EDF1EE8
:104B3000F6E02F12C1CFC501329C800D911D1124CA
:104B40009093AF018093AE018ECF089590E080E006
:104B50000895FC0101900020E9F73197AF01481B4F
:104B6000590BBC0189E596E00C9404240F931F9324
:104B7000CF93DF93809164008E7F80936400809157
:104B80007A00806480937A0080917A0086FDFCCF61
:104B9000C0917800D09179000E94EC23AB01BC0158
:104BA000CE01B0E0A0E0DC01992788278C019D01AF
:104BB000040F151F261F371FC901B801209164007B
:104BC000216020936400611571058105910531F024
:104BD000DF91CF911F910F910C94C02FDF91CF9156
:104BE0001F910F9108951F920F920FB60F921124EB
:104BF0008F939F938091E1009091E100937F909338
:104C0000E10083FF0FC01092E90091E09093EB0068
:104C10001092EC0092E39093ED001092080298E05D
:104C20009093F00082FF22C093E09093E90090916E
:104C3000F200992319F09AE39093E8009091F9011A
:104C4000992341F09091F90191509093F9019111BC
:104C500001C05D9A90910702992341F0909107025B
:104C6000915090930702911101C0289A84FF18C0B7
:104C70008091E2008E7E81608093E2008091E1006D
:104C80008F7E8093E1008091FA018E7E8061809317
:104C9000FA019F918F910F900FBE0F901F90189562
:104CA00080FFF7CF8091E2008E7E80618093E200EA
:104CB0008091E1008E7E8093E1008091FA018E7EEA
:104CC0008160E5CF1F920F920FB60F921124CF9201
:104CD000DF92EF92FF920F931F932F933F934F9387
:104CE0005F936F937F938F939F93AF93BF93EF9354
:104CF000FF93CF93DF93CDB7DEB76C97DEBFCDBF09
:104D00001092E9008091E80083FF25C068E0CE01A1
:104D100045960E94482382EF8093E8008D8987FFA3
:104D200039C09091E80090FFFCCF982F907609F061
:104D300034C19E894F89588D2F89F88C911131C0CB
:104D4000803861F58091F8018093F1001092F100B4
:104D50008EEF8093E8006C960FB6F894DEBF0FBE1E
:104D6000CDBFDF91CF91FF91EF91BF91AF919F9117
:104D70008F917F916F915F914F913F912F911F91F3
:104D80000F91FF90EF90DF90CF900F900FBE0F909C
:104D90001F9018959EEF9093E800C7CF1092F100F6
:104DA000D5CF913059F48111D3CF4130510581F6DF
:104DB0008091F8018D7F8093F801CACF933049F438
:104DC0008111C6CF4130510519F68091F8018260FA
:104DD000F2CF953041F48091E80080FFFCCF20684D
:104DE0002093E300B5CF963009F0A9C00B8D1C8D40
:104DF00022E01092E9001092F6011092F501F212F1
:104E00002EC01092F4011092F3010E9417231F820A
:104E100099E09983FA8291E09E8390EA98879AEFCD
:104E200099872091F5013091F601275F3F4F3C8330
:104E30002B838D831092E9001092F6011092F501F8
:104E40001093F4010093F30149E050E0BE016F5F5D
:104E50007F4F80E00E94F1220E94172379CF1093A8
:104E6000F4010093F3010E942E22DC0112960D91B1
:104E70001C910115110509F451C1D801ED91FC9166
:104E80000480F581E02DBE016B5E7F4FC80109955E
:104E9000009709F03EC1F80100851185EACFF3E0E3
:104EA000FF120EC08F89882309F440C0823061F45C
:104EB00040E867E089E693E40E94DE28811148CF4C
:104EC00081E28093EB0047CF813029F440E86BE02A
:104ED0008DE593E4F1CF833099F70E942E22DC0117
:104EE0001296ED90FC908E010F5F1F4F6801E11448
:104EF000F10479F0D701ED91FC910680F781E02D66
:104F0000B801C7010995080F111DF701E084F1846C
:104F1000EECFD8011C92F60101900020E9F73197FD
:104F2000BF016C197D0940E0C601C6CF67E473E498
:104F3000FB01449150E080E80E94F12209CF9730B4
:104F400009F4BECF983021F481E08093F10000CFC6
:104F5000993009F0FDCE837009F0B2CFE5E3F1E0BE
:104F600081E031E096E32191222371F08093E90002
:104F70003093EB00DF0111972C912093EC0090937C
:104F8000ED008F5F873079F78EE78093EA0010920B
:104F9000EA008F8980930802DBCE8B8D9C8D109266
:104FA000E9001092F6011092F5019093F4018093BC
:104FB000F301898D811192C08E899D89913A49F4BE
:104FC000813209F07DCF47E050E067E071E080E09A
:104FD000B3CF913209F074CF833269F48F89988D01
:104FE000B0E0A0E08093030190930401A093050139
:104FF000B0930601ADCE803269F48091E80082FF63
:10500000FCCF67E087E091E00E9448238BEF80931C
:10501000E8009ECE823209F09BCE8F8980930E01EC
:10502000EEEFFFE7859194918B3F9C4D51F1E0E0CD
:10503000F8E08091070190910801A0910901B091D9
:105040000A01803B9440A105B105F1F480910E0165
:1050500080FD1AC0EE3F8AE0F80789F587E797E7F9
:1050600091838083809160008093F70188E19BE0C9
:105070000FB6F894A895809360000FBE90936000DF
:1050800067CEEEEFFAE0D5CF8081918187379747E1
:1050900009F05ECEA89580916000886180936000E1
:1050A0008091F70180936000EE3F2AE0F20789F0DB
:1050B0008091FE0A9091FF0A9183808349CE80817E
:1050C00091818737980751F29093FF0A8093FE0AE7
:1050D000C5CF1092FF0A1092FE0A3ACE0E942E22ED
:1050E000DC0112960D911C910115110509F4E8CE11
:1050F000D801ED91FC910190F081E02DBE016B5E35
:105100007F4FC8010995811123CEF80100851185D3
:10511000EBCF181619060CF41BCED2CEF1E0FF121D
:10512000BECE6BE473E404CF0F920FB68F939F93C0
:10513000EF93FF938091EA018D5F8D3708F08D57D3
:105140008093EA01EBEEF1E080818E4F80839181C4
:105150009F4F918382818F4F828383818F4F83837F
:10516000EFEEF1E080818F5F808381818F4F8183BB
:1051700082818F4F828383818F4F83838FB18F6032
:1051800066991C9B88278F3681F48091E901981BD2
:10519000963068F0E0E0F8E087E78083818388E17B
:1051A00080936000F0936000FFCF9093E901FF913E
:1051B000EF919F918F910FBE0F901895EF92FF92F4
:1051C0000F931F93CF93DF93F82E192FE62E042F02
:1051D00081E0860F880F0E94C32283E00E94C322D1
:1051E000CF2DD12FEC0EFD2EF11CCE15DF05B9F021
:1051F00007FF13C0FE0184910E94C322182F80E094
:105200000E94C322812321968111EFCFDF91CF919C
:105210001F910F91FF90EF9008958881EDCF81E06D
:10522000F5CFE9E0F6E01382128288EE93E0A0E089
:10523000B0E084839583A683B7838FE391E0918365
:1052400080838FEF9FEF95878487E9E5F6E01382EF
:10525000128281E591E0918380830895CDB7DEB716
:105260006497DEBFCDBF789483E084BD83E085BDC5
:1052700081E080936E00E1E8F0E083E08083E0E885
:1052800081E08083E1E983E08083E0E981E080835D
:10529000E1EC87E08083E3EC81E08083E0EC82E076
:1052A0008083E2EC81E08083EAE787E080838068A6
:1052B0008083109208021092F8011092FA018091F6
:1052C000D70081608093D70080EA8093D80089B5A9
:1052D000806189BD89B5826089BD09B400FEFDCFBA
:1052E00081E090E00E9455238091D8008F7C8061FE
:1052F0008093D8008091E000807F8093E0008091CF
:10530000E1008E7E8093E1008DE08093E200559A6B
:10531000209A81EC80937C0081EF85B987EE84B977
:1053200084E38BB984EF8AB9769A6E9880EF81BB5B
:1053300010BA80E58CBD81E08DBD85E00E943124EE
:105340005F9A85E00E9431245C98ECE5F6E0859157
:105350008EBD00000DB407FEFDCFE936C1F75C9AA3
:1053600081E88093640081E0809365000E945C2462
:105370000E94342487FF15C05C9885EA8EBD00002A
:105380000DB407FEFDCF5C9A2E982F982D98809132
:10539000640080628093640081E083BF889513BEBF
:1053A000FCCF0E94342482FF37C02D980E94342401
:1053B00084788438A1F42D9A88EC0E9431242F98A7
:1053C0006FEF82E090E00E94E02F84EF91E00E9476
:1053D00055232F9A0E94342484788438D9F30E946C
:1053E000342484718431A1F42D9A88EC0E943124F4
:1053F0002E9860E082E090E00E94E02F84EF91E040
:105400000E9455232E9A0E94342484718431D9F34A
:1054100088EC0E943124C5CF2D9A82E090E00E9452
:10542000D82F8823D1F13E9A3F9A81E090E00E94E4
:10543000D82F282F2470D22E81FF0AC021112E9838
:1054400001EF1FEF0E94342486FF2AC02E9A2F9A64
:1054500082E30E9431240E9434248111F9CF80E13B
:10546000809300010E94B6258FE19CE09093E501B6
:105470008093E4019E012A5F3F4F3F872E878091F2
:10548000AA01882309F4ACC01092AA0180E090E040
:10549000892BA9F30E940000F2CF3E983F98C5CF18
:1054A000DD2029F00430110511F42E9A2F9881E0A7
:1054B0000E94E421302F3770732E980183E03595D8
:1054C00027958A95E1F7C9019695982F8827979592
:1054D0008795875F9D4F50E040E02E3F6FEF360786
:1054E00081F1BC016C567F4FDC01F12CE12CFA01FB
:1054F000E455FA4F5F01F501EE0DFF1DE491F0E078
:105500002F01072C02C0440C551C0A94E2F72F3FD0
:10551000320739F054966C905497642854966C92E4
:105520005497772021F0FB01C080C528C082FFEF8F
:10553000EF1AFF0A6F5F7F4F1196E8E5EE16F10450
:10554000D1F62F5F3F4F80589F4F485A5F4F403BE7
:10555000510509F0C2CF0E945C248FE00E943124E3
:105560000F5F1F4F0931110509F06CCFDD2011F0DD
:105570002F9A2D9880E991E00E9455232D9A81E081
:1055800090E00E94D82F80FF63CF8AE090E00E94D5
:10559000D82F9FEF980F9E3F08F05ACF22E330E0BC
:1055A0003093AF012093AE0128E330E03093AD019A
:1055B0002093AC010AE010E0682F89E596E00E9494
:1055C000FE240F5F1F4FC8010E94D82F0031110524
:1055D00099F70E945C2488EE93E00E94552338CF0F
:1055E0009091EB018091AB01392F381B832F2091D3
:1055F0000001321748F48F5F821708F047CF81E02F
:1056000083BF889513BE42CF81E08093AA01909317
:10561000AB01E8EAF1E0808191810196808391837A
:105620008091B1018093B0010E9434248093B10134
:1056300080E80E9451248823A1F08091E80188230A
:1056400009F43CC181508093E8018091E8018130E8
:1056500009F036C18091E7018A3018F089E0809323
:10566000E70180E10E9451248823A1F08091E801A4
:10567000823008F02FC18F5F8093E8018091E801AC
:10568000813009F02AC18091E7018A3018F089E061
:105690008093E70180E40E945124882369F080917F
:1056A000E7018F5F8093E7019091E80191111FC19D
:1056B0008B3010F01092E70180E20E945124882381
:1056C00059F08091E80181111FC18091E70181119A
:1056D0002CC18AE08093E70188E00E94512488234E
:1056E00009F491C080910201811105C08091E60109
:1056F000882309F488C08CE0E9E5F1E0A7E2B1E095
:1057000001900D928A95E1F78BE0E6E6F1E0ABE1DE
:10571000B1E001900D928A95E1F787E0E2E7F1E0D0
:10572000A3E1B1E001900D928A95E1F70E94B625C0
:105730004090E4015090E50161E0461A5108052CC3
:10574000000C6608770860E070E0CB0114141504C3
:105750001604170434F40E94712FA30192010E94D1
:10576000F22F25E0269FA001279F500D1124BA019A
:105770006759794F45E050E08EED91E00E94C92FC6
:105780000EED11E0B3EEEB2EB1E0FB2ED8018D91C2
:105790008D01082E000C990B0E946330F80131979F
:1057A0008083E016F10691F7109202011092E60153
:1057B0001092DD011092DC01E6EDF1E000ED11E068
:1057C0006AEC71E044EC51E02EEB31E088EB91E0C3
:1057D000A2EBEA2EA1E0FA2E1192D8011D928D01C2
:1057E000DB011D92BD01DA011D92AD01D9011D92AF
:1057F0009D01DC011D92CD01D7011D927D01B1E01B
:10580000EB3DFB0749F784E00E9451248823B1F067
:105810008091E80181118BC08091E7018A3009F005
:105820001CC18091DD01882319F081508093DD0136
:10583000E091DD01F0E0EA52FE4F1082809102011A
:10584000882309F42BC10E943C2482E0809301014B
:105850008CE190E09093AF018093AE0188E090E0FE
:105860009093AD018093AC018AE791E00E94A92555
:1058700081E08093010189E190E09093AF018093F2
:10588000AE018EE190E09093AD018093AC0181E890
:1058900091E00E94A9258FE090E09093AF01809362
:1058A000AE0188E290E09093AD018093AC018EE868
:1058B00091E00E94A9250E945C24E8CD82E0C3CE3D
:1058C000823009F0CECE8091E701873008F4C9CE4E
:1058D00086E0C5CE1092E801D1CE823009F0DACE52
:1058E0008091E701873008F4D5CE86E0D1CE9130A3
:1058F00021F48A3008F0DECEDFCE923009F0DCCE23
:10590000873008F0D7CED8CE813031F48091E701CE
:1059100081110BC089E0DECE823009F0DDCE8091AE
:10592000E701811102C086E0D5CE8150D3CE81300F
:1059300009F079C08091E701893009F099C0E6ED5E
:10594000F1E001900020E9F7EC5DF14009F076CF3D
:1059500099E6A92E96E0B92EF12CE12C8091E40174
:105960009091E501E816F90608F068CF45E050E0AF
:10597000B501CE0101960E94C92F1E828E010F5FD4
:105980001F4F86ED682E81E0782ED8018D918D0114
:10599000082E000C990B0E946330F8013197808328
:1059A000F30181913F01082E000C990B0E94633096
:1059B000F301319780832E853F850217130729F75E
:1059C00066ED71E0CE0101960E946B3035E0A30ECA
:1059D000B11C892B09F40EC26FEFE61AF60ABECF8E
:1059E00081E08093E6012ACF66ED71E08EEB91E0D5
:1059F000133039F066ED71E088EB91E0143009F076
:105A000017C20E9474301092D6011092D7011092E2
:105A1000D8011092D9011092DA011092DD011F5FB6
:105A20001093DC010BCF823071F18091DD01853064
:105A300008F004CFE82FF0E0EA52FE4FA091E70112
:105A400021E030E02C0F3D1F2A0F311DD9019C9120
:105A500090838F5F8093DD01F1CE8CE0E7E2F1E08F
:105A6000DE01119601900D928A95E1F71D86DDCF3A
:105A70008BE0EBE1F1E0DE01119601900D928A9549
:105A8000E1F71C86D2CF87E0E3E1F1E0DE01119679
:105A900001900D928A95E1F71886C7CF8091E601B3
:105AA000882359F10E943C2411E01093010182E205
:105AB00090E09093AF018093AE0188E090E09093E6
:105AC000AD018093AC018FE991E00E94A92582E0AD
:105AD000809301018EE190E09093AF018093AE013D
